:020000040800F2
:10000000E007002001030008BD240008B524000813
:10001000B9240008B515000871260008000000008A
:10002000000000000000000000000000C5240008DF
:10003000B915000800000000C1240008C924000808
:100040001B0300081B0300081B0300081B03000818
:100050001B0300081B0300081B0300081B03000808
:100060001B0300081B0300081B0300081B030008F8
:100070001B0300081B0300081B0300081B030008E8
:100080001B0300081B0300081B0300081B030008D8
:100090001B0300081B0300081B0300081B030008C8
:1000A0001B0300081B0300081B0300081B030008B8
:1000B0001B0300081B0300081B0300081B030008A8
:1000C0001B0300081B0300081B0300081B03000898
:1000D0001B0300081B0300081B0300081B03000888
:1000E0001B0300081B0300081B0300081B03000878
:1000F0001B0300081B0300081B0300081B03000868
:100100001B0300081B0300081B0300081B03000857
:100110001B0300081B0300081B0300081B03000847
:100120001B0300081B0300081B0300081B03000837
:100130001B0300081B0300081B0300081B03000827
:100140001B0300081B0300081B0300081B03000817
:100150001B0300081B0300081B0300081B03000807
:100160001B0300081B0300081B0300081B030008F7
:100170001B0300081B0300081B030008000000000D
:100180001B0300081B03000800F002F800F0A8F8A9
:1001900014A696E8000CB244B344DA4501D100F04D
:1001A0009FF8BAE80F000FA696E83000A5EB04050B
:1001B00004EB0607AAEB0704A7F101074FEA1515A0
:1001C0004FEA3414A4F10104AC4201D300F088F8E2
:1001D00013F0010F18BFFB1A43F0010300F001F800
:1001E000DBE71847C4330000E4330000103A24BFB3
:1001F00078C878C1FAD8520724BF30C830C144BF8C
:1002000004680C6070470000704700000023002461
:1002100000250026103A28BF78C1FBD8520728BF16
:1002200030C148BF0B6070476E2900F0FB81702918
:1002300000F03D83662903F05E80652903F05B8052
:10024000672903F05880612903F0578003681B0A6F
:1002500028BF41F08001692900F0A881642900F0DD
:10026000A581752900F0A2816F2900F0CB82782941
:1002700000F00983E92900F06582E42900F0628238
:10028000F52900F05F82EF2900F0C882F82900F01C
:1002900008830368DB0928BF41F08001632901F06E
:1002A0000980732901F00E80E32901F01980F329F8
:1002B00001F01E80002070471FB503F00FF801F019
:1002C0006DF804000020002102F0F2FF401C606085
:1002D0000020002102F0D6FFE0601FBD10B510BD68
:1002E00001F02EF81146FFF7E7FF02F0B1FA01F036
:1002F0000BF903B4FFF7F2FF03BC01F053F9000060
:100300000948804709480047FEE7FEE7FEE7FEE7A9
:10031000FEE7FEE7FEE7FEE7FEE7FEE704480549E5
:10032000054A064B70470000752500088901000842
:10033000E0010020E0070020E0030020E0030020AF
:1003400053EA020C00F069802DE9F04B4FF00006F3
:10035000002B1FBFB3FA83F503FA05F424FA05F660
:100360005E4012BF1643B2FA82F502FA05F4C5F1F7
:1003700020051EBF22FA05FC44EA0C04203556EA8B
:10038000044C4FEA144418BF641C4FF000084FF0AF
:100390000009904271EB030C39D3002919BFB1FA5F
:1003A00081F701FA07F6B0FA80F700FA07F6C7F10D
:1003B00020071EBF20FA07FC46EA0C062037B6FBD2
:1003C000F4FCA7EB0507103F07F01F0BCBF120064D
:1003D0002CFA06F60CFA0BFB44BFB3460026202F7E
:1003E000A4BF5E464FF0000B5BEA060C08BF4FF05F
:1003F000010B19EB0B0948EB0608ABFB027C06FB73
:1004000002CC0BFB03CCC01B71EB0C01C1E70B460C
:10041000024641464846BDE8F08B13B5084318BF75
:100420004FF0FF300146AFF30080BDE81C4070473D
:100430001CB50C46064B7B4469460090204600F0F4
:100440000AF904460020694600F018F920461CBD50
:100450004302000010B5431C02E010F8011B71B10B
:100460008107FAD14FF0013202C88C1A8C4314EA8A
:10047000C211F9D0C01A0A0603D0C01E10BDC01A9E
:1004800010BD0A0401D0801E10BD0902FCD0401E20
:1004900010BD4FF0000200B5134694469646203931
:1004A00022BFA0E80C50A0E80C50B1F12001BFF42D
:1004B000F7AF090728BFA0E80C5048BF0CC05DF893
:1004C00004EB890028BF40F8042B08BF704748BFE1
:1004D00020F8022B11F0804F18BF00F8012B704755
:1004E00070477047704770B5044685690068C1065B
:1004F00001D5302600E02026C00707D070BDD4E922
:10050000012130469047206A401C20626D1EF6D5BE
:1005100070BD70B5044685690078C00707D170BD0D
:10052000D4E9012120209047206A401C20626D1EE2
:10053000F6D570BD09684A0501D540B27047C905B6
:10054000FCD500B2704709684A0501D5C0B27047B2
:10055000C905FCD580B2704770B50C460546012A26
:1005600005D02878800600D5EA69002302E001233F
:1005700005E05B1C934202D2E05C0028F9D1A86937
:10058000E618C01AA861286A184428622846FFF7AE
:10059000AAFF04E0D5E9012114F8010B9047B44209
:1005A000F8D32846FFF7B5FF70BD00002DE9F041F4
:1005B0000646002410687529314616A510D0FFF7AD
:1005C000B9FF002802DA404213A507E031688A0724
:1005D00001D512A502E0490704D511A5012401E0C7
:1005E000FFF7B1FF00210A2206F1240709E0B0FB62
:1005F000F2FCB0FBF2F302FB1C00303078541846DA
:10060000491C0028F3D123462A463046BDE8F04174
:1006100000F061BA000000002D0000002B00000077
:100620002000000011680268006A530501D50870B7
:100630000AE0D30501D5088006E0130603D5C217EA
:10064000C1E9000200E008600120704701694A1C0E
:1006500002610878704700B58FB0CDE90131002103
:10066000059105497944CDE903101146684600F02B
:1006700029F90FB000BD0000E5FFFFFF0A6802F88E
:10068000010B0A60704700002DE9FF5F15468A469E
:100690000446DFF8AC80F8440027D8E900103E4655
:1006A000CDE9001010E03AF816106A4602A800F0F2
:1006B00023FE411C07D02178890603D5E269391849
:1006C00091420DD80744761C2078800602D5E06957
:1006D000B84205DDAE42E6DB3AF816000028E2D16A
:1006E000A069C01BA0612046FFF7FDFED8E90010FD
:1006F000CDE90010002017E03AF818106A4602A869
:1007000000F0FAFDB0F1FF3F81460BD000250DF15E
:10071000080B05E0D4E901211BF8050090476D1C8A
:100720004D45F7D308F10100B0428046E4DB206A72
:10073000384420622046FFF7ECFEBDE8FF9F000032
:10074000662C00002DE9F0418046D21D22F0070200
:100750000025D2E90002F52915A614D0011E72F178
:10076000000106DA0023D0EB030063EB020211A6BE
:1007700008E0D8F800108B0701D50FA602E0490762
:1007800001D50EA601251146002408F1240704E036
:1007900000F05CF930323A55641C50EA0102F7D19E
:1007A0002B46324621464046BDE8F04100F093B961
:1007B000000000002D0000002B00000020000000C1
:1007C00030B4002100F1240408E002F00705D2084B
:1007D000303542EA4372DB086554491C52EA03058E
:1007E000F3D10468002310A2250708D504F02004E3
:1007F0000C4304D0C46901230CA2641EC46130BC44
:1008000000F069B910B5044621461068FFF79BFE59
:1008100002462046BDE810400023D1E7D21D22F059
:100820000701D1E90023CBE7000000003000000001
:10083000F0B40D460188090502D5214C7C4402E044
:100840001F4C7C440E34002100F1240608E002F025
:100850000F071209E75D42EA03721B097754491C2E
:1008600052EA0307F3D102780023120704D5702D52
:1008700006D009B1022311342246F0BC00F02BB996
:1008800001231034F8E770B504460D462146106880
:10089000FFF759FE024629462046BDE87040002376
:1008A000C6E7D21D22F00703D3E90023C0E703689F
:1008B000126843F0200303600823C3610023B7E7F5
:1008C000C82A00002DE9F05F894604464FF0000A6F
:1008D000DFF874B1FB44C0F820A02046E1688847E7
:1008E000002874D0252806D0D4E901219047206A39
:1008F000401C2062F1E700265F462046E1688847F9
:100900002028054607DB312D05D2781910F8200C78
:1009100008B10643F1E7B00701D526F00406C4F894
:100920001CA00027C4F818A02A2D09D0284602F0E0
:10093000A1FC38B304EB8708303DC8F8185019E023
:1009400059F8041B204604EB87029161E16888474F
:10095000012F054618D1E069002820DA26F020068C
:100960001DE0D8F8180000EB800005EB400030389F
:10097000C8F818002046E1688847054602F07AFC6E
:100980000028EED1012F0AD02E2D08D12046E16893
:1009900088477F1C0546022F46F02006C4DBA0696D
:1009A000002803DA404246F00106A061F00701D0BA
:1009B00026F010066C2D0BD0682D09D04C2D39D0A7
:1009C0006A2D35D0742D35D07A2D33D016E038E02D
:1009D000E1682F4620468847B842054609D16C2F6A
:1009E00026D04FF48060E1680643204688470546DC
:1009F00004E06C2F1AD04FF4807006430DB3A5F1BC
:100A00004100192802D8203546F400664A46294696
:100A1000204626604E46FFF707FC80B101280BD028
:100A2000F61D26F0070000F1080956E74020E4E72C
:100A30008020D8E70020D6E706F104094DE72846D4
:100A400052E7206ABDE8F09F582A000030B5B0F1A7
:100A50000A0271F100034FEA900E4EEA817EB0EB7C
:100A60000E0061EB91014FEA101E4EEA017E10EB81
:100A70000E0041EB11114FEA102E4EEA016E10EB01
:100A80000E0041EB11214FEA104E4EEA014E10EBE1
:100A90000E0041EB1141401841F100014FEAD00036
:100AA00040EA41704FEAD1014FEA810444EA907470
:100AB00010EB800544EB01046D1944EB0404521B58
:100AC000A3414FF0000348BF0A3200D530BD401C9F
:100AD00041F1000130BD2DE9F0470D46994692469F
:100AE000044600F124080168880604D5E06921F075
:100AF0001001216000E00120A84201DD471B00E059
:100B00000027A1697A1902EB0900081AA061207870
:100B1000C00602D42046FFF7E6FC002608E0D4E930
:100B200001211AF806009047206A401C761C2062BA
:100B30004E45F4DB2078C0060AD52046FFF7D3FCEB
:100B400006E0D4E9012130209047206A401C206251
:100B5000381EA7F10107F4DC07E0D4E9012118F8F9
:100B600005009047206A401C2062281EA5F101055F
:100B7000F3DC2046FFF7CDFC2078000602D50220EA
:100B8000BDE8F0870120FBE72DE9FF4F0C461E462C
:100B90004FF0FF378BB0D2E90001DDF860800A909A
:100BA0008A46C1F30A5505B93D46002108464FF073
:100BB0000000BAF1000F00F4400005DA00EB8000FD
:100BC0004FF4400101EA50004FEA9059B9F1010F8A
:100BD00000DDB9460A9850EA4A000ED044F610509B
:100BE000A5F2FF3545432F14B8F1000F1ED0754212
:100BF000291E1EDDC9F100021CE0B8F1010F4FF003
:100C0000000001D0302103E0F24305E02154401CF4
:100C1000B042FBDB30460022002121540B99C1F881
:100C20000880C1E900200FB0BDE8F08FBD1B6D1C2E
:100C3000DEE74A4600DA694206A800F0F3FB06AB9D
:100C400093E8070003AB83E8070050460A9901F0D8
:100C500030FF8DE80700A0F500501F380090039882
:100C6000002D0ADD42F21F014A460844002303A971
:100C70000390684602F09AF909E0A0F500504A4650
:100C80001F38002303A90390684602F0A4F98DE8F9
:100C900007000004000C03D04FF0FF30410800E0D3
:100CA0001046B8F1000F03D00022009215461EE056
:100CB000751E05D4FFF7CAFE303262556D1EF9D598
:100CC000B3460122084302D000227F1C04E02078B2
:100CD000302801D100227F1E002A099784D01DE010
:100CE000112D07DAFFF7B2FE303262556D1C50EA63
:100CF0000102F5D1084302D00098C8B10EE00021EE
:100D0000681E05E0235C625C63542254401E491C4B
:100D10008142F7DBAB46A81B401E0990002004F877
:100D20000B000B98099AC0F80880C0E9002B7AE7FD
:100D300011264FF0000857E72DE9F04F884604468A
:100D4000D21D22F0070191B0D1E90001CDE90A01DD
:100D500002F078FA02460B98C00F01D02D2007E070
:100D60002068810701D52B2002E0202101EAC00084
:100D7000032A099001D0072A05DB03464146204695
:100D800000F010FB0BE12078800601D5E06900E05F
:100D90000620B8F1650F814606D0B8F1660F18D06D
:100DA000B8F1670F70D131E00020B9F1110F009058
:100DB00001DB112301E009F101030AAA01A90CA832
:100DC000FFF7E2FEDDE90C70002609F1010583461C
:100DD00047E001204B4600904FF000470AAA01A9C6
:100DE0000CA8FFF7D1FEDDE90DB00C995D46002699
:100DF00010B909F101000D18B9EB050003D4C0F1D9
:100E0000FF3609F10105A5EB09002BE0B9F1010F4F
:100E100001DA4FF001090020B9F1110F00904846A6
:100E200001DD112300E003460AAA01A90CA8FFF77F
:100E3000ABFEDDE90C704D460026834620780007A6
:100E40000AD4AB4500DA5D4601A8012D04DD411945
:100E500011F8011C302907D04F4502DA17F1040FB1
:100E600004DA012082460FE06D1EEEE7002F02DC5F
:100E7000ED1B3E4403E0781CA84200DD7D1CB81B3E
:100E800000F1010A4FF000472078000703D4AA457B
:100E900001DB4FF0FF3A0021B7F1004F0DF143089D
:100EA0008DF8431024D002202B23002F01DA7F423B
:100EB0002D230A21021EA0F1010000DC5FB197FB87
:100EC000F1FC97FBF1F201FB1C7C17460CF1300C96
:100ED00008F801CDEEE7A8F10100037021880905AB
:100EE00001D5452100E06521A0F1010800F8011CB1
:100EF00009980FA9A1EB0807FF1D00B101204119B6
:100F000001EBEA70A1693844081A401EA0612078FC
:100F1000C00602D42046FFF7E6FA099828B1D4E9C2
:100F200001219047206A401C20622078C00622D50B
:100F30002046FFF7D8FA1EE0002E04DBB34502DDA1
:100F400001A8805D00E03020D4E901219047206AAB
:100F5000401C2062761CAAF101005FEA000A0AD157
:100F600000F01CFAC0680168405CD4E90121904798
:100F7000206A401C2062281EA5F10105DCDC07E088
:100F8000D4E9012118F8010B9047206A401C206227
:100F9000381EA7F10107F3DC2046FFF7BAFA032059
:100FA00011B041E62DE9F04F04460D46D21D22F066
:100FB000070089B0D0E900974846394602F042F967
:100FC0000246F80F01D02D2307E02068810701D5E4
:100FD0002B2302E0202101EAC0038DF820300BB161
:100FE000012000E00020032A824601D0072A04DB0A
:100FF0002946204600F0D6F93FE12078800601D44A
:101000000D2500E0E569C7F30A560D2D49DA0021E8
:101010004FEA175B08464FF00000002F00F4400035
:1010200007DA00EB80004FF4400100EBD07001EADA
:1010300060008115012901DD4FF0FF3100224FEAE8
:10104000850CBCF1180F06D31346ACF118004FF015
:101050008052C24003E04FF4801323FA0CF30CF1EA
:101060000C0CBCF1200F04D3ACF1200C09FA0CF0ED
:1010700001E007FA0CF000294FF0004801DD18B933
:101080000FE00ED140450CD319EB02095F4121B9A5
:10109000404502D19F4329EA0209BBEB175F00D00C
:1010A000761C2088000502D57B48784402E07A4807
:1010B0007844193808AA302302F80A30037C0AF170
:1010C0000101002E0AF1020A53546A4602DC4FF075
:1010D000300101E04FF031014FF001088DF80010B0
:1010E00002D0A6F2FF3603E059EA470100D06B4E6A
:1010F000002D02DC2178090704D54FF002082E21CB
:101100008DF80110C44600210BE0C7F303433F01F3
:10111000C35C491C6D1E02F80830052908F101085E
:1011200001DA002DF1DC00210CE000EB1973491C01
:101130001B786D1E082902F808304FEA091908F1DA
:10114000010801DA002DF0DC21688B0602D516E0DB
:10115000A8F10108E04505DD02EB080313F8013CA6
:10116000302BF5D0B8F1000F09DD02EB080313F8BE
:10117000013C2E2B03D1090701D4A8F10108002D51
:1011800005DD3E2102F808106D1E08F10108407CC3
:10119000002E02F8080008F1010804DA2D2076423A
:1011A00002F8080002E02B2002F808000A214FF4A0
:1011B0007A70864208F101080BDB96FBF0F33033BE
:1011C00002F8083096FBF0F308F1010800FB136603
:1011D00001E0642E0CDB642096FBF0F3303302F860
:1011E000083096FBF0F308F1010800FB136601E0FC
:1011F0000A2E06DB96FBF1F0303002F8080008F109
:10120000010896FBF1F001FB1060303002F8080095
:10121000A16908F1010808EB050202EB0A00081AAF
:10122000A0612078C00602D42046FFF75CF9216A4D
:1012300008AE01EB0A00206204E0D4E9012116F8AF
:10124000010B9047BAF1010AF7D22078C00602D507
:101250002046FFF748F96E4609E016F8010B3E28D4
:101260000FD0D4E901219047206A401C2062B8F1D8
:101270000108F2D22046FFF74CF909B00320BDE87F
:10128000F08F206A2844206203E0D4E90121302055
:1012900090476D1EEBD3F8E7A622000002FCFFFF8B
:1012A00010B5436913B1AFF3008001E0FFF754F9C3
:1012B000012010BD127800F124010A7000224A704A
:1012C0000122EDE711684FF0FF32E9E710B54369FD
:1012D00013B1AFF3008001E0FFF7D6F9012010BD94
:1012E000128800F1240182840022C2840122EDE7E9
:1012F00011684FF0FF32E9E72DE9F04116460C4640
:10130000054600F043F8036893F80101012807D06F
:10131000FF2C12D8185D80B101202C70BDE8F0813F
:10132000D3F807013246214603F20713C7182846AF
:10133000BC46BDE8F041002360474FF0FF30EDE7C9
:10134000754600F0EBF8AE4605006946534620F0BE
:101350000700854618B020B5FEF7E0FFBDE8204045
:101360004FF000064FF000074FF000084FF0000B61
:10137000AC46ACE8C009ACE8C009ACE8C009ACE8D0
:10138000C00921F007018D467047000010B500F03C
:1013900005F8001D10BD00BF191F00000048704770
:1013A000380000202DE9F0411F460446032601685D
:1013B000072A01F4006004DB08B116A505E016A5B4
:1013C00003E008B115A500E015A521F0100020608C
:1013D000A069C01EA0610FB1401EA0612046FFF7AA
:1013E00082F84FB1D4E9012138469047206A401C69
:1013F0002062C01C206206E0206AFAE7D4E90121DD
:1014000015F8010B9047761EF8D22046FFF781F8B9
:10141000BDE8F0814E414E006E616E00494E4600BF
:10142000696E66002DE9F047814616468AB0354858
:1014300078440DC88DE80D0032487844801C03AC18
:101440000DC884E80D0041F69B300844372190FB1D
:10145000F1F290FBF1F5A5F1800501FB12041B3CB4
:1014600002D56442012000E00020DFF898A0804609
:101470000027FA44AAF1BE0A0EE0E0070AD032467D
:10148000684607EB470101230AEB810101F0A3FD48
:101490008DE8070064107F1C002CEED1194F7F44AB
:1014A000AE3F19E0E80715D007EB04100DF1180A5C
:1014B00090E80E008AE80E00C068F04201D1981949
:1014C00008903246012306A903A801F084FD03AB6E
:1014D00083E807006D10641C002DE3D14FF0010379
:1014E00032466946B8F1000F03A802D001F05EFD54
:1014F00001E001F070FDC9E90001C9F808200AB057
:10150000BDE8F087B01F000010B50446AFF30080BF
:101510002046BDE81040FEF7ECBE000000487047D2
:10152000180000200000000030B44FF0013C50F8DB
:10153000042B51F8043BCCFA52F4D51A20D1FCB953
:1015400050F8042B51F8043BCCFA52F4D51A17D1B9
:10155000B4B950F8042B51F8043BCCFA52F4D51A24
:101560000ED16CB950F8042B51F8043BCCFA52F46C
:10157000D51A05D1002CDAD030BC4FF000007047EE
:1015800029BAB1FA81F111F01801D1F1200084409B
:10159000F2D1CA40CB4012F0FF0213F0FF0330BC7F
:1015A000D01A704701491820ABBEFEE726000200A2
:1015B00070470000FEE7000070470000B0B58646A7
:1015C00002208EF80500DEF8000042B302F0030CA2
:1015D00094084FF0000210D0A1F11003A2EB840494
:1015E00053F8105F043A05605D68944205609D6899
:1015F0000560DD680560F3D15242BCF1000F0ED0EA
:1016000051F82230BCF1010F036008D001EB8201D8
:101610004A68BCF1020F02601CBF89680160006863
:1016200001218EF80510B0BD002804BF01207047CD
:10163000417919B1012141710020704710B5002195
:101640000171044600F008F82046BDE81040012171
:10165000417100207047000043F63001C4F20201DE
:101660000068A1F50362904218BF704781B0002066
:101670000090086840F480500860086800F48050CA
:101680000090009801B070472DE9F04F83B000F151
:10169000200200F13E4741F60045009207F1FF7736
:1016A000C4F2020508224FEAB726A84208BF072263
:1016B00000254FF000084FF00009072E38BF4FEA11
:1016C000B72201920AE000BF09F1010908F10208FE
:1016D000B9F1100F05F1040500F0A2800F68012296
:1016E00002FA09FE17EA0E0AEED0D1F804C003226E
:1016F0000CF003077E1E02FA08F4012E6FEA040BB9
:1017000012D88468CE6804EA0B0406FA08F634435B
:101710008460446824EA0E06CCF3001404FA09F449
:101720002643466004E000BF032F01D103271EE0DB
:10173000C6688C6806EA0B0604FA08F42643022FF2
:10174000C66014D16FF00302009E02EA590756F8F2
:1017500007C005F01C040F220B69A2402CEA02020C
:10176000A3401A43F251D1F804C00CF003070268F9
:1017700007FA08F302EA0B021A431CF4403F026026
:10178000A2D0002243F644030292C4F202031A6874
:1017900043F6004442F480421A601A68C4F201041D
:1017A00002F480420292029A29F003024FF6084C9A
:1017B0002244CFF6FF7C52F80C3005F00C070F26C0
:1017C000BE40B343019E06FA07F73B4342F80C3094
:1017D000A2684B6842EA0A0743F60C4CDE0258BF87
:1017E00022EA0A07A760C4F2010CDCF800209E027E
:1017F00042EA0A0758BF22EA0A07CCF8007062687A
:101800009E0342EA0A0758BF22EA0A076760226875
:10181000DB0342EA0A0758BF22EA0A07276053E7B8
:1018200003B0BDE8F08F00000069084018BF012038
:1018300070470000002A08BF09048161704700005A
:1018400040F2D810C2F200000068704740F2000079
:1018500040F2D811C2F20000C2F2000100780A681A
:10186000104408607047000080B543F60040C4F2A1
:101870000200016841F400710160016841F4806177
:101880000160016841F480710160032000F076F886
:10189000002000F005F800F027F8002080BD0000CF
:1018A00070B540F20006C2F2000640F2080132783C
:1018B000C2F200014FF47A730968B3FBF2F20446F6
:1018C000B1FBF2F1084600F04FFB0F2C4FF0010581
:1018D00008D838B94FF0FF3021460022002500F02B
:1018E00021F87460284670BD82B0002043F64001A4
:1018F0000190C4F202014A6842F480424A604A6898
:1019000002F480420192019A0090086840F08050F1
:101910000860086800F0805000900098072002B02E
:1019200000F02CB810B54EF60C5CCEF2000CDCF8D2
:101930000030C3F3022E8EF00704042C28BF0424C9
:10194000BEF103034FF0FF3E0EFA04F438BF00234C
:10195000A14399400EFA03F39A43114300F00F029A
:1019600000F160430901043A03F56443624400282E
:1019700048BF02F10C03197010BD00004EF60C5167
:10198000CEF200010A684FF6FF031A4060F30A2204
:1019900042F0806040F0FD7008607047002804BF8E
:1019A000012070472DE9F04143F60808C4F202080F
:1019B0000446D8F8F8030D4600F00700884207D225
:1019C00088F8F853D8F8F80300F00700A84277D158
:1019D0002068810717D5410705D5D8F8001041F4D4
:1019E000E051C8F80010010705D5D8F8001041F4FF
:1019F0006041C8F80010D8F80010A26821F0F0018A
:101A00001143C8F80010C00740D1D8F8F80300F01F
:101A10000700A84207D988F8F853D8F8F80300F06F
:101A20000700A8424CD12068410707D5D8F800101C
:101A3000E26821F4E0511143C8F80010000708D50E
:101A4000D8F80000216920F4604040EAC100C8F8DD
:101A5000000000F07DF8D8F8001043F2FC32C1F32A
:101A60000311C0F60002515C40F2080220FA01F1B5
:101A700040F20400C2F200000068C2F200021160ED
:101A8000FFF70EFF0020BDE8F08100BF6068811EF7
:101A9000022907D258F8081C89015CBF0120BDE863
:101AA000F08111E0012807D158F8081C89035CBFB8
:101AB0000120BDE8F08107E058F8081C890703D42D
:101AC0000120BDE8F08100BFD8F8001021F003012B
:101AD0000843C8F80000FFF7B3FE064641F2883716
:101AE000D8F80000616800F00C00B0EB810F8CD0DA
:101AF000FFF7A6FE801BB842F2D90320BDE8F081B3
:101B000040F2080043F60801C2F20000C4F20201EC
:101B10000068096843F20C42C1F38221C0F600025A
:101B2000515CC8407047000040F2080043F60801CD
:101B3000C2F20000C4F202010068096843F20C42DC
:101B4000C1F34231C0F60002515CC840704700004A
:101B500010B543F60404C4F20204606800F00C01FE
:101B600042F200400829C0F2F40007D0042918BF4F
:101B700010BD41F20020C0F27A0010BD216801F0D2
:101B80003F02216823684902C3F3881106D4A1FBF0
:101B900000010023FEF7D4FB07E000BF41F2002064
:101BA000C0F27A004843B0FBF2F021680222C1F390
:101BB000014102EB4101B0FBF1F010BD002804BF70
:101BC000012070472DE9F04182B00446007843F6C9
:101BD0000006C007C4F202060CD0B06800F00C008A
:101BE000042840F081803068800303D560680028B5
:101BF00000F06881207880071BD5B06810F00C0FCA
:101C000009D0B06800F00C00082840F087807068A8
:101C1000400200F183803068800703D5E068012826
:101C200040F050813068216920F0F80040EAC1009E
:101C300030602078000713D4207840072AD4A569A3
:101C4000002D00F03A81B06800F00C00082840F048
:101C5000A580012D40F00E81012002B0BDE8F08189
:101C60006069002800F082800020C4F24720012132
:101C7000C0F8801EFFF7E4FD054600BF706F8007C7
:101C8000DAD4FFF7DDFD401B0228F7D9032002B0AC
:101C9000BDE8F081306C5FEAC0080AD400200190F2
:101CA000306C40F080503064306C00F08050019017
:101CB000019847F20007C4F200073868C00547D40E
:101CC000386840F480703860FFF7BAFD054600BF01
:101CD0003868C0053CD4FFF7B3FD401B0228F7D994
:101CE000032002B0BDE8F081B06800F00C000828C5
:101CF00003D1706840023FF576AF61683068B1F596
:101D0000803F07D0B1F5A02F40F09A8040F48020AA
:101D10003060306840F4803030609AE0E06800283D
:101D200040F20000C4F247205CD001210160FFF7BF
:101D300087FD0546306880073FF574AFFFF780FDEB
:101D4000401B0228F6D9032002B0BDE8F08100BF95
:101D5000A168306F012905D0052955D140F0040054
:101D60003067306F40F00100306756E00020C4F269
:101D700047200021C0F8801EFFF762FD054600BF26
:101D8000706F80077FF558AFFFF75AFD401B0228A0
:101D9000F6D9032002B0BDE8F08100BF0027C4F2ED
:101DA000472700203866FFF74BFD022D05460DD171
:101DB0003068800140F18A80FFF742FD401B022815
:101DC0004FF00300F4D902B0BDE8F0813068800123
:101DD00073D5FFF735FD401B02284FF00300F5D9FE
:101DE000F1E700BF00210160FFF72AFD054600BFB3
:101DF000306880077FF51DAFFFF722FD401B0228EA
:101E00004FF00300F4D9DEE720F001003067306FB7
:101E1000002920F0040030677AD0FFF711FD054655
:101E200041F28837306F800700F18480FFF708FDAA
:101E3000401BB842F6D9032002B0BDE8F08100BFD4
:101E400020F4803030603068002920F48020306039
:101E50007AD0FFF7F5FC0546306880033FF5CAAE3F
:101E6000FFF7EEFC401B6428F6D9032002B0BDE862
:101E7000F08100BF7068E16900F480028A4221D1DC
:101E8000216A00F03F028A421CD147F6C071626AA3
:101E90000140B1EB821F15D1A16A4FF6FF73C90350
:101EA000994300F44032A1F580318A420AD1E16AB7
:101EB00000F07060B0EB016F04D1002002B0BDE80B
:101EC000F08100BF012002B0BDE8F08104F11C05E3
:101ED0002FCD084340EA8210D9034FF6FF72914399
:101EE000A1F5803140EA0560084370600120386642
:101EF000FFF7A6FC044600BF30688001DDD4FFF781
:101F00009FFC001B02284FF00300F5D95BE700BFE0
:101F1000FFF796FC054641F2883700BF306F800717
:101F200008D5FFF78DFC401BB8424FF00300F5D9F0
:101F300049E700BFB8F1000F3FF581AE306C20F0EB
:101F4000805030647BE600BFFFF77AFC054600BF97
:101F5000306880037FF54EAEFFF772FC401B6428AB
:101F60004FF00300F4D92EE7411E0020B0EB116FB3
:101F70001CBF012070474EF21002CEF200025160E9
:101F80004EF62351CEF20001F0230B700721906032
:101F900011607047002804BF0120704710B5044647
:101FA00090F8410028B9002084F84000204600F055
:101FB00021F8242084F841002068C16821F40051F0
:101FC000C160204600F0E0FA2068016921F49041E8
:101FD0000161416921F02A014161C16841F4005168
:101FE000C16000202021606484F8411084F8421010
:101FF000606310BDF0B587B0006844F60001C4F21C
:10200000000100248842CDE90544CDE9034402944F
:102010002AD044F20041C4F20001884265D1002078
:1020200043F630010190C4F202010A6942F4003221
:102030000A610A6902F400320192019A01900A6869
:1020400042F001020A60096801F001010191019961
:102050000C2102910221CDE90310032005900020FC
:10206000C4F202003CE000BF43F630000194C4F229
:1020700002000169002741F4802101610169C4F275
:10208000020701F480210191019901940168022560
:1020900041F0020101600168032601F00201019193
:1020A00001990194016841F008010160006802A9EA
:1020B00000F00800019001984FF4006002900720A2
:1020C000069007F58060CDE903540596FFF7DCFA2A
:1020D0004FF48070CDE9020507F54060CDE9044674
:1020E0000721069102A9FFF7CFFA07B0F0BD000063
:1020F0002DE9F04381B0044690F84200202809D130
:10210000884600294FF0010018BF002A06D101B00F
:10211000BDE8F083022001B0BDE8F0830020222159
:102120001D46606484F8421020631646FFF788FB62
:10213000A685E685A1680746B1F5805F02D12069D2
:10214000002851D046464FF00008E08D00284FD0BF
:1021500005F101090CE000BF406800266FF35F2025
:1021600028F8020BE08D0138E085E08D00283FD093
:1021700020680168890617D4B9F1000F22D0002D1C
:1021800000F0CA80FFF75CFBC01BA84200F2BC80D5
:102190002068C168490744BF01685FEA01712FD414
:1021A00001688906EED500BF002ED5D0A168B1F533
:1021B000805F15D009B9216991B1406800F07F00B6
:1021C0000FE000BF01688906EED4016889065CBF94
:1021D00001685FEA8161E7D401688906F2D5E3E727
:1021E000406806F8010BBDE70026E08D0028AFD15E
:1021F0000020202184F8421001B0BDE8F08300BF28
:10220000002100910168009140680090009800BF93
:10221000206850E8030F216820F4907041E8030221
:10222000BAB3206850E8030F216820F4907041E8A9
:10223000030272B3206850E8030F216820F4907005
:1022400041E803022AB3206850E8030F216820F414
:10225000907041E80302002ADAD11AE0206850E8C1
:10226000050F216820F0010041E80502DAB120687D
:1022700050E8050F216820F0010041E8050292B105
:10228000206850E8050F216820F0010041E80502B0
:102290004AB1206850E8050F216820F0010041E8AC
:1022A0000502002ADAD1206B012824D1206850E8E9
:1022B000030F216820F0100041E80302DAB1206822
:1022C00050E8030F216820F0100041E8030292B1AA
:1022D000206850E8030F216820F0100041E8030255
:1022E0004AB1206850E8030F216820F0100041E84F
:1022F0000302002ADAD1202084F8420000200821BD
:102300002063616484F840000320202184F8421097
:1023100001B0BDE8F08300BFFFF792FAF4E70000D8
:102320002DE9F04381B0044690F84100202809D1FE
:1023300000294FF0010018BF002A07D101B0BDE805
:10234000F08300BF022001B0BDE8F083002060648C
:1023500021201D460E4684F841001746FFF770FA0B
:10236000A784E784A1688146B1F5805F02D1206926
:1023700000285DD037460020E28C2168002A5DD01D
:102380006A1C24D0002D4AD0804600BF0868000691
:1023900008D4FFF755FAA0EB0900A8427AD82168C3
:1023A000C868F3E717B117F8010B04E038F8020B1F
:1023B00000276FF35F204860E08C0138E084E08CF8
:1023C0000028E3D13AE000BF0A68120609D40A687F
:1023D000120606D40A6812065CBF0A685FEA026247
:1023E000F2D51FB117F8012B05E000BF30F8022B22
:1023F00000276FF35F224A60E28C013AE284E28CAC
:10240000002AE4D11AE000BF30F8022B00276FF356
:102410005F224A60E28C013AE284E28C72B10A687F
:10242000120635D5002FEFD017F8012BF1E700BFCA
:1024300000273046E28C2168002AA1D108684006B6
:102440001ED42DB3681C14D1086840062AD408682D
:10245000400627D40868400624D4086840064FF098
:102460000000F1D50DE000BF2068C168006840069B
:1024700018D4FFF7E5F9A0EB0900A842F4D909E068
:102480000020202184F8411001B0BDE8F08300BF96
:10249000FFF7D6F90320202184F8411001B0BDE8F0
:1024A000F08300BF0020202184F8411001B0BDE876
:1024B000F0830000FEE70000FEE70000FEE70000FA
:1024C0007047000070470000FFF7C0B970B592B0C8
:1024D00006AC20463021FDF7DCFF002543F6400026
:1024E0000595CDE90355CDE901550095C4F20200EB
:1024F0000168022641F080510160006800F08050C0
:102500000090009847F200000095C4F200000168B6
:1025100041F480410160006800F480400090009820
:102520000120099010200A9008200E9032200F9070
:10253000042010900720119020460696CDE90C65E6
:10254000FFF73CFB10B172B6FEE700BF0F20CDE9EC
:1025500001064FF4A05004904FF48050059001A85C
:1025600000210395FFF71AFA10B172B6FEE700BF1B
:1025700012B070BD4EF68850CEF20000016841F4F2
:102580007001016070470000B0B50446006804F1B6
:1025900008030ECB0569194325F440552A4302610F
:1025A0006269E3691143C268194349F20C639A43B3
:1025B0001143C1604169A26921F4407141F20043B5
:1025C000114340F48062C4F201039A42416103D195
:1025D000FFF7AAFA02E000BFFFF792FAE1694FF6AF
:1025E0009C7563681922C0F6FF75B1F5004FA0FB1A
:1025F00002011FD15A00DB0FFDF7A2FE48F21F5166
:10260000C5F2EB11A0FB01235A0905F1805302FB2F
:102610000300322303EBC000A0FB01014FF4F8706C
:1026200000EA111000EB0210C1F3421108442168C6
:102630008860B0BD9A009B0FFDF782FE48F21F51E3
:10264000C5F2EB11A0FB01235A0902FB050032235E
:1026500003EB0010A0FB0101F02000EA511000EB99
:102660000210C1F34311084421688860B0BD000026
:10267000FEE7000086B040F2C80B40F27805C2F2D7
:10268000000BC2F2000505F108060BF101000DF187
:10269000100A0DF10808009003E000BF5FA000F0F1
:1026A000E9F95846C821FDF7F4FE304659460122A3
:1026B0004FF0FF33FFF71CFD9BF8002000993046D8
:1026C0004FF0FF33FFF714FD9BF8010052281DD097
:1026D0005128E3D143F2B040C0F6000000F0CAF93F
:1026E0009BF800000BEB000151F8034CC71E29D0EA
:1026F000ABF1010919F8010F414602902846012269
:10270000FEF75CFF013FF5D11DE000BF43F28840BA
:10271000C0F6000000F0AEF99BF800000BEB0001E2
:1027200051F8039CC71E45D0ABF1010414F8010F0A
:102730005146049028460122FEF740FF013FF5D1A3
:1027400039E000BFFF202968A0428A6842F00102F8
:102750008A6021D143F21440C0F6000000F08AF9EB
:1027600040F2A510ADF80D0030460DF10D0102222A
:102770004FF0FF33FFF7D4FD10208DF8070043F230
:102780004450C0F600001021102200F073F93046CA
:102790000DF107013CE000BF43F23140C0F60000FC
:1027A00000F068F97F208DF80F0030460DF10F0121
:1027B0002EE000BFFF20296848458A6842F00102E8
:1027C0008A6019D143F21440C0F6000000F052F9BB
:1027D00040F6A500ADF8150030460DF115010222B6
:1027E0004FF0FF33FFF79CFD40F20C013046C2F280
:1027F000000108220DE000BF43F26E40C0F6000069
:1028000000F038F97F208DF8170030460DF11701E0
:1028100001224FF0FF33FFF783FD42E75B4465621F
:1028200075675D3A20496E76616C696420636F6DEF
:102830006D616E6420636F6465207265636569769F
:1028400065642066726F6D20686F7374200A0000E3
:1028500086B040F20008C4F20208FFF705F8FFF75F
:1028600035FE002743F630000597CDE90377CDE923
:1028700001770097C4F20200016808F5406541F055
:10288000100101600168002201F01001009100991F
:10289000009701684FF4704941F00401016001683C
:1028A00001F00401009100990097016841F0800156
:1028B0000160016801F080010091009900970168B2
:1028C00041F001010160016801F0010100910099EE
:1028D0000097016841F002010160016801F0020106
:1028E000009100990097016841F0080101600068BB
:1028F0004FF4704100F00800009000982846FEF761
:1029000099FF4FF4881001AE0124CDE9020740463B
:1029100031460194FEF7B8FE28463146CDE90194D0
:10292000CDE90377FEF7B0FE40F27805C2F200056C
:10293000A8F5DE31284640F8081F4FF4E1340C2694
:10294000C0E90147C0E90377C0E90567C761FFF740
:1029500021FB18B172B600BFFEE700BF40F2901035
:10296000A8F5DC31C2F2000080E89200C0E90377EC
:10297000C0E90567C761FFF70DFB18B172B600BF6C
:10298000FEE700BF08F5405028602846FEF74CFEE1
:1029900010B172B6FEE700BF40460121FEF744FFCA
:1029A000A0B343F25F50C0F6000000F063F843F2BA
:1029B000D740C0F6000000F05DF848F20005C0F610
:1029C00000052C6843F2FD40C0F60000214600F0EF
:1029D00051F884F308886C6843F21650C0F6000082
:1029E000214600F047F8A0470BA400BFFEF728FFE0
:1029F00005462046294600F03DF805F5FA7500BF6A
:102A0000FEF71EFFA842FBD9F0E700BF09A000F0C7
:102A100031F8FFF72FFE00BF43757272656E7420A8
:102A20005469636B2056616C7565203D2025640DEB
:102A30000A0000005B44656275675D3A2055736566
:102A40007220427574746F6E2069732070726573A2
:102A5000736564202D3E20476F696E6720696E7430
:102A60006F20426F6F746C6F616465722E2E2E2E14
:102A70000A0D000083B010B59BB084461DA802ACBF
:102A80000EC01DAA204661460192FDF7D1FC2046EA
:102A9000FDF7E0FC82B240F29010C2F20000214645
:102AA0004FF0FF33FFF73CFC1BB0BDE8104003B014
:102AB00070475FEA400C08BF91F0000F4FEA8C238B
:102AC0004FEAC12243EA51514FEA1C5018BF00F5AA
:102AD000F0404FEA300018BF41F000415FEA6C5C03
:102AE00000F02980BCF1FF3F08BF40F080407047F4
:102AF000130C06BF12044FF0100C4FF0000C130E15
:102B000004BF12020CF1080C130F04BF12010CF1E8
:102B1000040C930F04BF92000CF1020CD30F04BFFE
:102B200052000CF1010C11464FF00002A0F11F0001
:102B3000A0EB0C00704711F0004F08BF704731F058
:102B400000413FF4D5AF0B0C06BF09044FF0100C49
:102B50004FF0000C0B0E04BF09020CF1080C0B0F18
:102B600004BF09010CF1040C8B0F04BF89000CF1A8
:102B7000020CCB0F04BF49000CF1010CCCF1200377
:102B800022FA03F341EA030102FA0CF2A0EB0C0073
:102B900000F101007047000023F07F4720F07F4CD8
:102BA00080EA030000F00040ACEB070303F57C5320
:102BB00003F1FF032DE9804909B44FEA144324EAE5
:102BC00003484FEA154B25EA0B4E0FF2042606EB9D
:102BD00013273E7803FB0667C7F5000707FB06F6D9
:102BE0004FEAD64606F102064FEA543707FB066C59
:102BF000CCF1005C4FEA1C472CEA074C0CFB06F5B5
:102C000007FB06F404EB15464FEA961649085FEAFF
:102C1000320234BF00204FF000404FEAD13706FBAC
:102C200007FC4FEA1C4C0CFB0BF7D21B03FB0CF709
:102C300061EB07010CFB0EF7B0EB074072EB17429C
:102C40000CFB08F734BFA2EB0742B2EB074261EB83
:102C500017414FEA0C444FEA910706FB07FC4FEA85
:102C60001C4C0CFB0BF7B0EBC74072EB573203FB6D
:102C70000CF734BFA2EBC742B2EBC74261EB57314E
:102C80000CFB0EF7B0EBC70072EB57720CFB08F7AA
:102C900034BFA2EBC702B2EBC70261EB57714FEA38
:102CA000816141EA92114FEA826242EA90124FEA50
:102CB000806004EBCC04039F4FEAD13706FB07FC8E
:102CC0004FEA1C4C0CFB0BF7D21B03FB0CF761EB20
:102CD00007010CFB0EF7B0EB074072EB17420CFB41
:102CE00008F734BFA2EB0742B2EB074261EB174192
:102CF0004FEA8C5504EB9C244FEA910706FB07FC36
:102D00004FEA1C4C0CFB0BF7B0EBC74072EB573291
:102D100003FB0CF734BFA2EBC742B2EBC74261EB37
:102D200057310CFB0EF7B0EBC70072EB57720CFB80
:102D300008F734BFA2EBC702B2EBC70261EB5771D1
:102D40004FEA816141EA92114FEA826242EA9012AF
:102D50004FEA806015EB4C2544F100044FEAD1376F
:102D600006FB07FC4FEA1C4C0CFB0BF7D21B03FBCA
:102D70000CF761EB07010CFB0EF7B0EB074072EBB1
:102D800017420CFB08F734BFA2EB0742B2EB074235
:102D900061EB17414FEA813141EA92414FEA8232B9
:102DA00042EA90424FEA80304FEA0C7615EB1C1550
:102DB00044F1000448EA03434EEA0B484FF0000E8A
:102DC000B2EB080C71EB030724BF624639464EEBA9
:102DD0000E0E4FF0000B0018524149414BEB0B0B0C
:102DE000B2EB080C71EB03077BF1000B24BF6246CA
:102DF00039464EEB0E0E4FF0000B00185241494180
:102E00004BEB0B0BB2EB080C71EB03077BF1000BE8
:102E100024BF624639464EEB0E0E51EA020718BF38
:102E200046F0010616EB0E7655F1000254F1000152
:102E300003D5BDE88901BDE80088BDE88901BDE88A
:102E40000048B619524141EB0101A3F1010370475B
:102E500080807F7E7D7C7B7A7978777676757473D7
:102E6000727171706F6E6E6D6C6C6B6A6A69686896
:102E7000676666656464636362616160605F5F5E2C
:102E80005E5D5D5C5C5B5B5A5A59595858575756A2
:102E90005655555554545353525252515150505007
:102EA0004F4F4F4E4E4D4D4D4C4C4C4B4B4B4A4A59
:102EB0004A4949494848484747474746464645459D
:102EC00045444444444343434342424242414141D6
:102ED0009C46002B30D477002BD04FEA37071CB527
:102EE00003B44FF010004FF01001BAF1000F06D0FC
:102EF000BCF1000FDCBF40F0080040F008014FF0CB
:102F000000000FBCBDE810400BF1010BBBF1010F3D
:102F100008BF5FEA170722BF12F1010211F1010198
:102F20004FF0004143F1000300F0004043EA00008D
:102F30007047F9D35708D0E746EA06464FEA1646E7
:102F400013F1400F1FDD13F1200FDFBF16430A46B8
:102F5000002120335B42BED0C3F1200746EA06467B
:102F60004FEA164602FA07F746EA070622FA03F284
:102F7000C3F1200701FA07F742EA070221FA03F139
:102F80004FF00003A7E746EA020646EA06464FEA84
:102F9000164646EA0106BCBF46EA0646360C4FF026
:102FA00000034FF000024FF0000194E72DE9804C40
:102FB00070B49A46934691E8380007C831EA400C4D
:102FC00048BF34EA430C03D5FFF7E6FDFFF780FF67
:102FD000F0BCBDE8008C2DE9804C70B49A46934655
:102FE00091E8380007C810F0804F08BF13F0804FF9
:102FF00003D100F005F8FFF76BFFF0BCBDE8008CD3
:1030000020F07F4723F07F4C80EA030000F000406F
:1030100007EB0C03A3F57C53A3F1FE0392F0000F22
:1030200000F0B38095F0000F00F077802DE90149A2
:103030004FEA114021EA00484FEA144624EA0647C5
:1030400000FB06FC08FB06F607FB08F818EB064831
:103050004CEB164C00FB07F718EB07484CEB1740FE
:103060004FEA124B22EA0B4E4FEA154625EA064775
:103070000BFB06FC0EFB06F607FB0EFE1EEB064ED8
:103080004CEB164C0BFB07F71EEB074E4CEB174BAC
:1030900018EB0B0840F1000018EB0E0B58EB000882
:1030A00040F100008F1A4FF000014FF000063CBFC6
:1030B000C943661B14BFB5EB040C00213CBFC943D8
:1030C000F61B4FEA174427EA04454FEA1C472CEA4F
:1030D000074C04FB076205FB07F70CFB05F616EB34
:1030E000074642EB174204FB0CFC16EB0C4642EB86
:1030F0001C421BEB060658EB020241414EEA8E0EC3
:1031000046EA9E0601D5BDE80189B619524141EB58
:103110000101A3F10103BDE801894FEA144524EA46
:1031200005464FEA114721EA074C05FB07F406FB69
:1031300007F70CFB06F111EB074144EB174405FBC5
:103140000CFC11EB0C4144EB1C444FEA124722EA01
:10315000074C05FB07F206FB07F70CFB06F616EB20
:10316000074642EB174205FB0CFC16EB0C4642EB04
:103170001C456A1854F1000148BF7047B619524106
:1031800041EB0101A3F10103704795F0000F37D027
:103190004FEA114221EA02464FEA144724EA074C5B
:1031A00002FB07F106FB07F70CFB06F414EB0744E0
:1031B00041EB174102FB0CFC14EB0C4441EB1C41AE
:1031C0004FEA154725EA074C02FB07F506FB07F710
:1031D0000CFB06F616EB074645EB174502FB0CFC0D
:1031E00016EB0C4645EB1C42121951F1000148BF89
:1031F0007047B619524141EB0101A3F10103704739
:103200004FEA144524EA05464FEA114721EA074CE4
:1032100005FB07F106FB07F70CFB06F212EB074272
:1032200041EB174105FB0CFC12EB0C4251EB1C412E
:103230004FF0000648BF7047921841EB0101A3F11F
:103240000103704703B401984100009850EAC1207F
:1032500018BF04204A0D18BF40F0010040F2FF7271
:10326000B2EB515F08BF40F00200012808BF052003
:1032700002B0704730380A2801D201207047002080
:103280007047000010B500290AD00878002807D040
:1032900005487844FEF748F9002801D0002010BD09
:1032A0000248784410BD0000360300002E030000E1
:1032B00010B500290AD00878002807D005487844BE
:1032C000FEF732F9002801D0002010BD02487844F2
:1032D00010BD0000260300001E030000F1EE100ADE
:1032E0004FF6FF71C0F2C03120EA010040F040709B
:1032F000E1EE100A7047FDF71FBDFDF753BE000059
:103300000000000000000000303132333435363721
:103310003839414243444546403058003031323319
:103320003435363738396162636465664030780019
:10333000040000080000000000000002000100007E
:103340001030313233343536373839616263646571
:10335000667870003031323334353637383941428F
:10336000434445465850000002400000000000A0C1
:103370000000000005400000000000C80000000040
:103380000C4000000000409C0000000019400000BC
:103390000020BCBE0000000034400000BFC91B8EEE
:1033A00000000004B5400000504BCFD06607E2CFCC
:1033B000010000006C4100003E8251AADFEEA734FC
:1033C00001000000D9420000DCB5A0E23A301F97AE
:1033D000FFFFFFFFB4450000FD25A0C8E9A3C14FD2
:1033E000FFFFFFFFFF3F0000000000800000000023
:1033F000FF3F00000000008000000000000000000F
:103400000000000001020304060708090000000094
:10341000010203045B44656275675D3A2043686599
:10342000636B73756D205375636365737321210A34
:10343000005B44656275675D3A20436865636B7342
:10344000756D204661696C2E2E2E0A005B44656204
:1034500075675D3A20476F2041646472657373201D
:10346000697320496E76616C69642E2E0A005B4494
:10347000656275675D3A20436865636B73756D209F
:103480004661696C2E2E0A005B44656275675D3A81
:1034900020626F6F746C6F616465725F68616E64E7
:1034A0006C655F67657468656C705F636D640A0066
:1034B0005B44656275675D3A20626F6F746C6F6123
:1034C0006465725F68616E646C655F67657476657C
:1034D000725F636D640A005B44656275675D3A20E4
:1034E000626F6F746C6F616465725F6A756D705F37
:1034F000746F5F757365725F6170700A005B44651D
:103500006275675D3A204D53502076616C75653A5F
:10351000202523780A005B44656275675D3A205573
:103520007365722041707020526573657420486124
:103530006E646C657220416464726573733A202511
:1035400023780A005B44656275675D3A20424C5FF0
:10355000564552202D3E202564202523780A005B05
:1035600044656275675D3A205573657220427574D3
:10357000746F6E206973206E6F7420707265737340
:103580006564202D3E20456E746572696E67205516
:10359000736572204170706C69636174696F6E2E1F
:1035A0002E2E2E0A0D000000F83600080000002024
:1035B00018000000EC010008103700081800002077
:1035C000C80700000C0200081C00000043000000B7
:1035D000F8FFFFFF0C0000000E0000000F000000CD
:1035E0002E0000001001000043000000F8FFFFFF64
:1035F0000040404040404040404041414141414006
:1036000040404040404040404040404040404040BA
:103610004005020202020202020202020202020249
:10362000022020202020202020202002020202024E
:1036300002029090909090901010101010101010A6
:1036400010101010101010101010101002020202B2
:1036500002028888888888880808080808080808F6
:1036600008080808080808080808080802020202F2
:10367000400000000000000000000000000000000A
:10368000000000000000000000000000000000003A
:10369000000000000000000000000000000000002A
:1036A000000000000000000000000000000000001A
:1036B000000000000000000000000000000000000A
:1036C00000000000000000000000000000000000FA
:1036D00000000000000000000000000000000000EA
:1036E00000000000000000000000000000000000DA
:1036F00000000000000000000100000010000000B9
:103700000024F400515253545556575A00000000FB
:040000050800018965
:00000001FF
